:100000000C9434000C9451000C9451000C94510049
:100010000C9451000C9451000C9451000C9451001C
:100020000C9451000C9451000C9451000C9451000C
:100030000C9451000C9451000C9451000C945100FC
:100040000C9451000C9451000C9451000C945100EC
:100050000C9451000C9451000C9451000C945100DC
:100060000C9451000C94510011241FBECFEFD8E026
:10007000DEBFCDBF11E0A0E0B1E0E2E3F2E002C0FC
:1000800005900D92A230B107D9F721E0A2E0B1E0CE
:1000900001C01D92A330B207E1F70E945F000C94EB
:1000A00017010C9400009091020181E08927809350
:1000B0000201913011F05F9A08955F98089584B11C
:1000C000876084B9579A8AB180668AB987B18F6090
:1000D00087B954985C9A86E880937A0085B18760E6
:1000E00085B98AE0F82E96E0E92E19E025E0D22EB7
:1000F00004E433E0C32E8091000181110BC08BB169
:100100008F798BB95F984C99FECFC092000185B171
:10011000876085B90E945300C0E0C11165C0D8B89E
:100120008BB180668BB9D4E00E94530000937C00B1
:1001300080917A00806480937A0080917A0086FDB5
:10014000FCCF80917800909179008D32914008F435
:100150005DC080910001815080930001823009F0E0
:100160004DC02A985F9818B98BB180668BB98FEF14
:1001700090E829E2815090402040E1F700C0000063
:100180008BB18F798BB98BB18F798BB98FEF93ED61
:1001900020E3815090402040E1F700C000008FEF45
:1001A00093ED20E3815090402040E1F700C0000033
:1001B0008FEF93ED20E3815090402040E1F700C0A5
:1001C00000008FEF93ED20E3815090402040E1F755
:1001D00000C000008FEF93ED20E38150904020405D
:1001E000E1F700C0000087CFC13011F418B998CFF3
:1001F000C23011F4E8B894CFF8B892CF813011F43E
:100200002998B0CF8111AECF2898ACCF8FEF99E667
:1002100028E1815090402040E1F700C00000D1501B
:1002200009F082CFCF5FC43009F077CF64CFF89464
:02023000FFCFFE
:020232000300C7
:00000001FF
