:100000000C9434000C9451000C9451000C94510049
:100010000C9451000C9451000C9451000C9451001C
:100020000C9451000C9451000C9451000C9451000C
:100030000C9451000C9451000C9451000C945100FC
:100040000C9465000C9451000C9451000C945100D8
:100050000C9451000C9451000C9451000C945100DC
:100060000C9451000C94510011241FBECFEFD8E026
:10007000DEBFCDBF11E0A0E0B1E0E6EDF3E002C0ED
:1000800005900D92A230B107D9F721E0A2E0B1E0CE
:1000900001C01D92A830B207E1F70E948A000C94BB
:1000A000E9010C94000088B1807F88B917BC18BCA6
:1000B00008952FB7F8946091020170910301809127
:1000C0000401909105012FBF08951F920F920FB662
:1000D0000F9211248F939F93AF93BF93809102014E
:1000E00090910301A0910401B09105010196A11D19
:1000F000B11D8093020190930301A0930401B0937A
:100100000501BF91AF919F918F910F900FBE0F90FE
:100110001F90189584B1876084B985B1887F85B9AF
:10012000579A5F9887B18F6087B988B1807F88B907
:1001300080E480937C0087E880937A001092C50069
:1001400087E68093C4001092C00088E18093C100CC
:1001500086E08093C2008AB180668AB983EA84BD52
:1001600093E095BD80916E00816080936E0017BC16
:1001700018BC789485B1876085B910920701909377
:1001800000010E9459005F9A0E9459004B015C01D6
:10019000C12CD12C7601D1E001E013E0CFEF8091AA
:1001A0000701811137C080910601811133C00E947F
:1001B00059002B013C01481859086A087B0828EEB1
:1001C000421623E052066104710430F0D1111DC0C3
:1001D0005F9A4B015C01D1E08091C00087FF2BC08A
:1001E0008091C60090910601911125C09091070160
:1001F000992391F08F7D8835F1F41093000185B13A
:10020000876085B91092070116C05F98D0E04B0156
:100210005C01E2CF5F98E0CF883579F308F0A5C0A4
:100220008C3409F4C7C008F098C0823409F4BCC00B
:10023000863409F4A2C0809107018111B0CF80916A
:1002400006018111ACCF0E9459002B013C01DC0159
:10025000CB018C199D09AE09BF09C297A105B10553
:1002600008F49DCF80917C00887F846080937C001F
:100270008AE18A95F1F700C080917A0080648093CA
:100280007A0080917A0086FDFCCF80917800909171
:1002900079008C3B924008F45DC080910001882376
:1002A00009F458C000930601912F981B09F088C0EB
:1002B00028985F98409A88B1897F88B9439AC7BDCA
:1002C000C8BD0E9459006B017C010E9459006C1945
:1002D0007D098E099F096C3B724081059105A8F349
:1002E0000E9453000E9459006B017C010E9459003A
:1002F0006C197D098E099F09683873418105910544
:10030000A8F3419A88B1867F88B9429AC7BDC8BD13
:100310000E9459006B017C010E9459006C197D09F3
:100320008E099F096C3B724081059105A8F30E94DC
:10033000530080910001882319F0815080930001BF
:1003400080910001811104C0009307010E945300B5
:10035000109206017301620122CF8235F9F08335D4
:1003600009F069CF0E94530066CF8C3619F170F402
:100370008236D1F0863609F05ECF88B1856088B9C3
:1003800088B1857F88B9C7BDC8BD55CF833751F3C4
:10039000883709F432CF823709F04DCF88B18960B0
:1003A00088B988B1897FEECF88B18A6088B988B171
:1003B0008A7FE8CF88B1866088B988B1867FE2CF2E
:1003C000913011F4299875CF923009F072CF2A98A4
:0603D00070CFF894FFCF8E
:0203D600030022
:00000001FF
